{
  "_format": "hh-sol-artifact-1",
  "contractName": "Factory",
  "sourceName": "contracts/Factory.sol",
  "abi": [
    {
      "inputs": [],
      "stateMutability": "nonpayable",
      "type": "constructor"
    },
    {
      "anonymous": false,
      "inputs": [
        {
          "indexed": false,
          "internalType": "address",
          "name": "nft",
          "type": "address"
        }
      ],
      "name": "LogCreatedNFT",
      "type": "event"
    },
    {
      "inputs": [
        {
          "internalType": "string",
          "name": "token",
          "type": "string"
        },
        {
          "internalType": "string",
          "name": "name",
          "type": "string"
        },
        {
          "internalType": "string",
          "name": "symbol",
          "type": "string"
        },
        {
          "internalType": "string",
          "name": "baseURI",
          "type": "string"
        }
      ],
      "name": "createContract",
      "outputs": [
        {
          "internalType": "address",
          "name": "",
          "type": "address"
        }
      ],
      "stateMutability": "nonpayable",
      "type": "function"
    },
    {
      "inputs": [
        {
          "internalType": "string",
          "name": "token",
          "type": "string"
        }
      ],
      "name": "getUserContracts",
      "outputs": [
        {
          "internalType": "address[]",
          "name": "",
          "type": "address[]"
        }
      ],
      "stateMutability": "view",
      "type": "function"
    }
  ],
  "bytecode": "0x608060405234801561001057600080fd5b506137de806100206000396000f3fe60806040523480156200001157600080fd5b50600436106200003a5760003560e01c8063ce29af78146200003f578063cf8d40d41462000075575b600080fd5b6200005d60048036038101906200005791906200040a565b620000ab565b6040516200006c91906200055d565b60405180910390f35b6200009360048036038101906200008d919062000581565b62000157565b604051620000a2919062000680565b60405180910390f35b6060600080620000bb846200025b565b81526020019081526020016000208054806020026020016040519081016040528092919081815260200182805480156200014b57602002820191906000526020600020905b8160009054906101000a900473ffffffffffffffffffffffffffffffffffffffff1673ffffffffffffffffffffffffffffffffffffffff168152602001906001019080831162000100575b50505050509050919050565b6000808484846040516200016b9062000286565b620001799392919062000726565b604051809103906000f08015801562000196573d6000803e3d6000fd5b509050600080620001a7886200025b565b8152602001908152602001600020819080600181540180825580915050600190039060005260206000200160009091909190916101000a81548173ffffffffffffffffffffffffffffffffffffffff021916908373ffffffffffffffffffffffffffffffffffffffff1602179055507f462314ebb29d083ac165d5ccda89ada8c24809d7729ebf46ed85a31f993b2a348160405162000247919062000680565b60405180910390a180915050949350505050565b600080829050600081510362000278576000801b91505062000281565b60208301519150505b919050565b613030806200077983390190565b6000604051905090565b600080fd5b600080fd5b600080fd5b600080fd5b6000601f19601f8301169050919050565b7f4e487b7100000000000000000000000000000000000000000000000000000000600052604160045260246000fd5b620002fd82620002b2565b810181811067ffffffffffffffff821117156200031f576200031e620002c3565b5b80604052505050565b60006200033462000294565b9050620003428282620002f2565b919050565b600067ffffffffffffffff821115620003655762000364620002c3565b5b6200037082620002b2565b9050602081019050919050565b82818337600083830152505050565b6000620003a36200039d8462000347565b62000328565b905082815260208101848484011115620003c257620003c1620002ad565b5b620003cf8482856200037d565b509392505050565b600082601f830112620003ef57620003ee620002a8565b5b8135620004018482602086016200038c565b91505092915050565b6000602082840312156200042357620004226200029e565b5b600082013567ffffffffffffffff811115620004445762000443620002a3565b5b6200045284828501620003d7565b91505092915050565b600081519050919050565b600082825260208201905092915050565b6000819050602082019050919050565b600073ffffffffffffffffffffffffffffffffffffffff82169050919050565b6000620004b48262000487565b9050919050565b620004c681620004a7565b82525050565b6000620004da8383620004bb565b60208301905092915050565b6000602082019050919050565b600062000500826200045b565b6200050c818562000466565b9350620005198362000477565b8060005b8381101562000550578151620005348882620004cc565b97506200054183620004e6565b9250506001810190506200051d565b5085935050505092915050565b60006020820190508181036000830152620005798184620004f3565b905092915050565b600080600080608085870312156200059e576200059d6200029e565b5b600085013567ffffffffffffffff811115620005bf57620005be620002a3565b5b620005cd87828801620003d7565b945050602085013567ffffffffffffffff811115620005f157620005f0620002a3565b5b620005ff87828801620003d7565b935050604085013567ffffffffffffffff811115620006235762000622620002a3565b5b6200063187828801620003d7565b925050606085013567ffffffffffffffff811115620006555762000654620002a3565b5b6200066387828801620003d7565b91505092959194509250565b6200067a81620004a7565b82525050565b60006020820190506200069760008301846200066f565b92915050565b600081519050919050565b600082825260208201905092915050565b60005b83811015620006d9578082015181840152602081019050620006bc565b60008484015250505050565b6000620006f2826200069d565b620006fe8185620006a8565b935062000710818560208601620006b9565b6200071b81620002b2565b840191505092915050565b60006060820190508181036000830152620007428186620006e5565b90508181036020830152620007588185620006e5565b905081810360408301526200076e8184620006e5565b905094935050505056fe60806040523480156200001157600080fd5b50604051620030303803806200303083398181016040528101906200003791906200030c565b828281600090816200004a919062000610565b5080600190816200005c919062000610565b5050506200007f62000073620000ab60201b60201c565b620000b360201b60201c565b6200009032620000b360201b60201c565b8060089081620000a1919062000610565b50505050620006f7565b600033905090565b6000600660009054906101000a900473ffffffffffffffffffffffffffffffffffffffff16905081600660006101000a81548173ffffffffffffffffffffffffffffffffffffffff021916908373ffffffffffffffffffffffffffffffffffffffff1602179055508173ffffffffffffffffffffffffffffffffffffffff168173ffffffffffffffffffffffffffffffffffffffff167f8be0079c531659141344cd1fd0a4f28419497f9722a3daafe3b4186f6b6457e060405160405180910390a35050565b6000604051905090565b600080fd5b600080fd5b600080fd5b600080fd5b6000601f19601f8301169050919050565b7f4e487b7100000000000000000000000000000000000000000000000000000000600052604160045260246000fd5b620001e28262000197565b810181811067ffffffffffffffff82111715620002045762000203620001a8565b5b80604052505050565b60006200021962000179565b9050620002278282620001d7565b919050565b600067ffffffffffffffff8211156200024a5762000249620001a8565b5b620002558262000197565b9050602081019050919050565b60005b838110156200028257808201518184015260208101905062000265565b60008484015250505050565b6000620002a56200029f846200022c565b6200020d565b905082815260208101848484011115620002c457620002c362000192565b5b620002d184828562000262565b509392505050565b600082601f830112620002f157620002f06200018d565b5b8151620003038482602086016200028e565b91505092915050565b60008060006060848603121562000328576200032762000183565b5b600084015167ffffffffffffffff81111562000349576200034862000188565b5b6200035786828701620002d9565b935050602084015167ffffffffffffffff8111156200037b576200037a62000188565b5b6200038986828701620002d9565b925050604084015167ffffffffffffffff811115620003ad57620003ac62000188565b5b620003bb86828701620002d9565b9150509250925092565b600081519050919050565b7f4e487b7100000000000000000000000000000000000000000000000000000000600052602260045260246000fd5b600060028204905060018216806200041857607f821691505b6020821081036200042e576200042d620003d0565b5b50919050565b60008190508160005260206000209050919050565b60006020601f8301049050919050565b600082821b905092915050565b600060088302620004987fffffffffffffffffffffffffffffffffffffffffffffffffffffffffffffffff8262000459565b620004a4868362000459565b95508019841693508086168417925050509392505050565b6000819050919050565b6000819050919050565b6000620004f1620004eb620004e584620004bc565b620004c6565b620004bc565b9050919050565b6000819050919050565b6200050d83620004d0565b620005256200051c82620004f8565b84845462000466565b825550505050565b600090565b6200053c6200052d565b6200054981848462000502565b505050565b5b8181101562000571576200056560008262000532565b6001810190506200054f565b5050565b601f821115620005c0576200058a8162000434565b620005958462000449565b81016020851015620005a5578190505b620005bd620005b48562000449565b8301826200054e565b50505b505050565b600082821c905092915050565b6000620005e560001984600802620005c5565b1980831691505092915050565b6000620006008383620005d2565b9150826002028217905092915050565b6200061b82620003c5565b67ffffffffffffffff811115620006375762000636620001a8565b5b620006438254620003ff565b6200065082828562000575565b600060209050601f83116001811462000688576000841562000673578287015190505b6200067f8582620005f2565b865550620006ef565b601f198416620006988662000434565b60005b82811015620006c2578489015182556001820191506020850194506020810190506200069b565b86831015620006e25784890151620006de601f891682620005d2565b8355505b6001600288020188555050505b505050505050565b61292980620007076000396000f3fe608060405234801561001057600080fd5b50600436106101165760003560e01c8063714c5398116100a2578063a22cb46511610071578063a22cb465146102cd578063b88d4fde146102e9578063c87b56dd14610305578063e985e9c514610335578063f2fde38b1461036557610116565b8063714c539814610269578063715018a6146102875780638da5cb5b1461029157806395d89b41146102af57610116565b806323b872dd116100e957806323b872dd146101b557806340d097c3146101d157806342842e0e146101ed5780636352211e1461020957806370a082311461023957610116565b806301ffc9a71461011b57806306fdde031461014b578063081812fc14610169578063095ea7b314610199575b600080fd5b610135600480360381019061013091906119b7565b610381565b60405161014291906119ff565b60405180910390f35b610153610463565b6040516101609190611aaa565b60405180910390f35b610183600480360381019061017e9190611b02565b6104f5565b6040516101909190611b70565b60405180910390f35b6101b360048036038101906101ae9190611bb7565b61053b565b005b6101cf60048036038101906101ca9190611bf7565b610652565b005b6101eb60048036038101906101e69190611c4a565b6106b2565b005b61020760048036038101906102029190611bf7565b6106e0565b005b610223600480360381019061021e9190611b02565b610700565b6040516102309190611b70565b60405180910390f35b610253600480360381019061024e9190611c4a565b6107b1565b6040516102609190611c86565b60405180910390f35b610271610868565b60405161027e9190611aaa565b60405180910390f35b61028f6108fa565b005b61029961090e565b6040516102a69190611b70565b60405180910390f35b6102b7610938565b6040516102c49190611aaa565b60405180910390f35b6102e760048036038101906102e29190611ccd565b6109ca565b005b61030360048036038101906102fe9190611e42565b6109e0565b005b61031f600480360381019061031a9190611b02565b610a42565b60405161032c9190611aaa565b60405180910390f35b61034f600480360381019061034a9190611ec5565b610aaa565b60405161035c91906119ff565b60405180910390f35b61037f600480360381019061037a9190611c4a565b610b3e565b005b60007f80ac58cd000000000000000000000000000000000000000000000000000000007bffffffffffffffffffffffffffffffffffffffffffffffffffffffff1916827bffffffffffffffffffffffffffffffffffffffffffffffffffffffff1916148061044c57507f5b5e139f000000000000000000000000000000000000000000000000000000007bffffffffffffffffffffffffffffffffffffffffffffffffffffffff1916827bffffffffffffffffffffffffffffffffffffffffffffffffffffffff1916145b8061045c575061045b82610bc1565b5b9050919050565b60606000805461047290611f34565b80601f016020809104026020016040519081016040528092919081815260200182805461049e90611f34565b80156104eb5780601f106104c0576101008083540402835291602001916104eb565b820191906000526020600020905b8154815290600101906020018083116104ce57829003601f168201915b5050505050905090565b600061050082610c2b565b6004600083815260200190815260200160002060009054906101000a900473ffffffffffffffffffffffffffffffffffffffff169050919050565b600061054682610700565b90508073ffffffffffffffffffffffffffffffffffffffff168373ffffffffffffffffffffffffffffffffffffffff16036105b6576040517f08c379a00000000000000000000000000000000000000000000000000000000081526004016105ad90611fd7565b60405180910390fd5b8073ffffffffffffffffffffffffffffffffffffffff166105d5610c76565b73ffffffffffffffffffffffffffffffffffffffff1614806106045750610603816105fe610c76565b610aaa565b5b610643576040517f08c379a000000000000000000000000000000000000000000000000000000000815260040161063a90612069565b60405180910390fd5b61064d8383610c7e565b505050565b61066361065d610c76565b82610d37565b6106a2576040517f08c379a0000000000000000000000000000000000000000000000000000000008152600401610699906120fb565b60405180910390fd5b6106ad838383610dcc565b505050565b6106ba611032565b60006106c660076110b0565b90506106d260076110be565b6106dc82826110d4565b5050565b6106fb838383604051806020016040528060008152506109e0565b505050565b6000806002600084815260200190815260200160002060009054906101000a900473ffffffffffffffffffffffffffffffffffffffff169050600073ffffffffffffffffffffffffffffffffffffffff168173ffffffffffffffffffffffffffffffffffffffff16036107a8576040517f08c379a000000000000000000000000000000000000000000000000000000000815260040161079f90612167565b60405180910390fd5b80915050919050565b60008073ffffffffffffffffffffffffffffffffffffffff168273ffffffffffffffffffffffffffffffffffffffff1603610821576040517f08c379a0000000000000000000000000000000000000000000000000000000008152600401610818906121f9565b60405180910390fd5b600360008373ffffffffffffffffffffffffffffffffffffffff1673ffffffffffffffffffffffffffffffffffffffff168152602001908152602001600020549050919050565b60606008805461087790611f34565b80601f01602080910402602001604051908101604052809291908181526020018280546108a390611f34565b80156108f05780601f106108c5576101008083540402835291602001916108f0565b820191906000526020600020905b8154815290600101906020018083116108d357829003601f168201915b5050505050905090565b610902611032565b61090c60006110f2565b565b6000600660009054906101000a900473ffffffffffffffffffffffffffffffffffffffff16905090565b60606001805461094790611f34565b80601f016020809104026020016040519081016040528092919081815260200182805461097390611f34565b80156109c05780601f10610995576101008083540402835291602001916109c0565b820191906000526020600020905b8154815290600101906020018083116109a357829003601f168201915b5050505050905090565b6109dc6109d5610c76565b83836111b8565b5050565b6109f16109eb610c76565b83610d37565b610a30576040517f08c379a0000000000000000000000000000000000000000000000000000000008152600401610a27906120fb565b60405180910390fd5b610a3c84848484611324565b50505050565b6060610a4d82610c2b565b6000610a57611380565b90506000815111610a775760405180602001604052806000815250610aa2565b80610a8184611397565b604051602001610a92929190612255565b6040516020818303038152906040525b915050919050565b6000600560008473ffffffffffffffffffffffffffffffffffffffff1673ffffffffffffffffffffffffffffffffffffffff16815260200190815260200160002060008373ffffffffffffffffffffffffffffffffffffffff1673ffffffffffffffffffffffffffffffffffffffff16815260200190815260200160002060009054906101000a900460ff16905092915050565b610b46611032565b600073ffffffffffffffffffffffffffffffffffffffff168173ffffffffffffffffffffffffffffffffffffffff1603610bb5576040517f08c379a0000000000000000000000000000000000000000000000000000000008152600401610bac906122eb565b60405180910390fd5b610bbe816110f2565b50565b60007f01ffc9a7000000000000000000000000000000000000000000000000000000007bffffffffffffffffffffffffffffffffffffffffffffffffffffffff1916827bffffffffffffffffffffffffffffffffffffffffffffffffffffffff1916149050919050565b610c34816114f7565b610c73576040517f08c379a0000000000000000000000000000000000000000000000000000000008152600401610c6a90612167565b60405180910390fd5b50565b600033905090565b816004600083815260200190815260200160002060006101000a81548173ffffffffffffffffffffffffffffffffffffffff021916908373ffffffffffffffffffffffffffffffffffffffff160217905550808273ffffffffffffffffffffffffffffffffffffffff16610cf183610700565b73ffffffffffffffffffffffffffffffffffffffff167f8c5be1e5ebec7d5bd14f71427d1e84f3dd0314c0f7b2291e5b200ac8c7c3b92560405160405180910390a45050565b600080610d4383610700565b90508073ffffffffffffffffffffffffffffffffffffffff168473ffffffffffffffffffffffffffffffffffffffff161480610d855750610d848185610aaa565b5b80610dc357508373ffffffffffffffffffffffffffffffffffffffff16610dab846104f5565b73ffffffffffffffffffffffffffffffffffffffff16145b91505092915050565b8273ffffffffffffffffffffffffffffffffffffffff16610dec82610700565b73ffffffffffffffffffffffffffffffffffffffff1614610e42576040517f08c379a0000000000000000000000000000000000000000000000000000000008152600401610e399061237d565b60405180910390fd5b600073ffffffffffffffffffffffffffffffffffffffff168273ffffffffffffffffffffffffffffffffffffffff1603610eb1576040517f08c379a0000000000000000000000000000000000000000000000000000000008152600401610ea89061240f565b60405180910390fd5b610ebc838383611563565b610ec7600082610c7e565b6001600360008573ffffffffffffffffffffffffffffffffffffffff1673ffffffffffffffffffffffffffffffffffffffff1681526020019081526020016000206000828254610f17919061245e565b925050819055506001600360008473ffffffffffffffffffffffffffffffffffffffff1673ffffffffffffffffffffffffffffffffffffffff1681526020019081526020016000206000828254610f6e9190612492565b92505081905550816002600083815260200190815260200160002060006101000a81548173ffffffffffffffffffffffffffffffffffffffff021916908373ffffffffffffffffffffffffffffffffffffffff160217905550808273ffffffffffffffffffffffffffffffffffffffff168473ffffffffffffffffffffffffffffffffffffffff167fddf252ad1be2c89b69c2b068fc378daa952ba7f163c4a11628f55a4df523b3ef60405160405180910390a461102d838383611568565b505050565b61103a610c76565b73ffffffffffffffffffffffffffffffffffffffff1661105861090e565b73ffffffffffffffffffffffffffffffffffffffff16146110ae576040517f08c379a00000000000000000000000000000000000000000000000000000000081526004016110a590612512565b60405180910390fd5b565b600081600001549050919050565b6001816000016000828254019250508190555050565b6110ee82826040518060200160405280600081525061156d565b5050565b6000600660009054906101000a900473ffffffffffffffffffffffffffffffffffffffff16905081600660006101000a81548173ffffffffffffffffffffffffffffffffffffffff021916908373ffffffffffffffffffffffffffffffffffffffff1602179055508173ffffffffffffffffffffffffffffffffffffffff168173ffffffffffffffffffffffffffffffffffffffff167f8be0079c531659141344cd1fd0a4f28419497f9722a3daafe3b4186f6b6457e060405160405180910390a35050565b8173ffffffffffffffffffffffffffffffffffffffff168373ffffffffffffffffffffffffffffffffffffffff1603611226576040517f08c379a000000000000000000000000000000000000000000000000000000000815260040161121d9061257e565b60405180910390fd5b80600560008573ffffffffffffffffffffffffffffffffffffffff1673ffffffffffffffffffffffffffffffffffffffff16815260200190815260200160002060008473ffffffffffffffffffffffffffffffffffffffff1673ffffffffffffffffffffffffffffffffffffffff16815260200190815260200160002060006101000a81548160ff0219169083151502179055508173ffffffffffffffffffffffffffffffffffffffff168373ffffffffffffffffffffffffffffffffffffffff167f17307eab39ab6107e8899845ad3d59bd9653f200f220920489ca2b5937696c318360405161131791906119ff565b60405180910390a3505050565b61132f848484610dcc565b61133b848484846115c8565b61137a576040517f08c379a000000000000000000000000000000000000000000000000000000000815260040161137190612610565b60405180910390fd5b50505050565b606060405180602001604052806000815250905090565b6060600082036113de576040518060400160405280600181526020017f300000000000000000000000000000000000000000000000000000000000000081525090506114f2565b600082905060005b600082146114105780806113f990612630565b915050600a8261140991906126a7565b91506113e6565b60008167ffffffffffffffff81111561142c5761142b611d17565b5b6040519080825280601f01601f19166020018201604052801561145e5781602001600182028036833780820191505090505b5090505b600085146114eb57600182611477919061245e565b9150600a8561148691906126d8565b60306114929190612492565b60f81b8183815181106114a8576114a7612709565b5b60200101907effffffffffffffffffffffffffffffffffffffffffffffffffffffffffffff1916908160001a905350600a856114e491906126a7565b9450611462565b8093505050505b919050565b60008073ffffffffffffffffffffffffffffffffffffffff166002600084815260200190815260200160002060009054906101000a900473ffffffffffffffffffffffffffffffffffffffff1673ffffffffffffffffffffffffffffffffffffffff1614159050919050565b505050565b505050565b611577838361174f565b61158460008484846115c8565b6115c3576040517f08c379a00000000000000000000000000000000000000000000000000000000081526004016115ba90612610565b60405180910390fd5b505050565b60006115e98473ffffffffffffffffffffffffffffffffffffffff16611928565b15611742578373ffffffffffffffffffffffffffffffffffffffff1663150b7a02611612610c76565b8786866040518563ffffffff1660e01b8152600401611634949392919061278d565b6020604051808303816000875af192505050801561167057506040513d601f19601f8201168201806040525081019061166d91906127ee565b60015b6116f2573d80600081146116a0576040519150601f19603f3d011682016040523d82523d6000602084013e6116a5565b606091505b5060008151036116ea576040517f08c379a00000000000000000000000000000000000000000000000000000000081526004016116e190612610565b60405180910390fd5b805181602001fd5b63150b7a0260e01b7bffffffffffffffffffffffffffffffffffffffffffffffffffffffff1916817bffffffffffffffffffffffffffffffffffffffffffffffffffffffff191614915050611747565b600190505b949350505050565b600073ffffffffffffffffffffffffffffffffffffffff168273ffffffffffffffffffffffffffffffffffffffff16036117be576040517f08c379a00000000000000000000000000000000000000000000000000000000081526004016117b590612867565b60405180910390fd5b6117c7816114f7565b15611807576040517f08c379a00000000000000000000000000000000000000000000000000000000081526004016117fe906128d3565b60405180910390fd5b61181360008383611563565b6001600360008473ffffffffffffffffffffffffffffffffffffffff1673ffffffffffffffffffffffffffffffffffffffff16815260200190815260200160002060008282546118639190612492565b92505081905550816002600083815260200190815260200160002060006101000a81548173ffffffffffffffffffffffffffffffffffffffff021916908373ffffffffffffffffffffffffffffffffffffffff160217905550808273ffffffffffffffffffffffffffffffffffffffff16600073ffffffffffffffffffffffffffffffffffffffff167fddf252ad1be2c89b69c2b068fc378daa952ba7f163c4a11628f55a4df523b3ef60405160405180910390a461192460008383611568565b5050565b6000808273ffffffffffffffffffffffffffffffffffffffff163b119050919050565b6000604051905090565b600080fd5b600080fd5b60007fffffffff0000000000000000000000000000000000000000000000000000000082169050919050565b6119948161195f565b811461199f57600080fd5b50565b6000813590506119b18161198b565b92915050565b6000602082840312156119cd576119cc611955565b5b60006119db848285016119a2565b91505092915050565b60008115159050919050565b6119f9816119e4565b82525050565b6000602082019050611a1460008301846119f0565b92915050565b600081519050919050565b600082825260208201905092915050565b60005b83811015611a54578082015181840152602081019050611a39565b60008484015250505050565b6000601f19601f8301169050919050565b6000611a7c82611a1a565b611a868185611a25565b9350611a96818560208601611a36565b611a9f81611a60565b840191505092915050565b60006020820190508181036000830152611ac48184611a71565b905092915050565b6000819050919050565b611adf81611acc565b8114611aea57600080fd5b50565b600081359050611afc81611ad6565b92915050565b600060208284031215611b1857611b17611955565b5b6000611b2684828501611aed565b91505092915050565b600073ffffffffffffffffffffffffffffffffffffffff82169050919050565b6000611b5a82611b2f565b9050919050565b611b6a81611b4f565b82525050565b6000602082019050611b856000830184611b61565b92915050565b611b9481611b4f565b8114611b9f57600080fd5b50565b600081359050611bb181611b8b565b92915050565b60008060408385031215611bce57611bcd611955565b5b6000611bdc85828601611ba2565b9250506020611bed85828601611aed565b9150509250929050565b600080600060608486031215611c1057611c0f611955565b5b6000611c1e86828701611ba2565b9350506020611c2f86828701611ba2565b9250506040611c4086828701611aed565b9150509250925092565b600060208284031215611c6057611c5f611955565b5b6000611c6e84828501611ba2565b91505092915050565b611c8081611acc565b82525050565b6000602082019050611c9b6000830184611c77565b92915050565b611caa816119e4565b8114611cb557600080fd5b50565b600081359050611cc781611ca1565b92915050565b60008060408385031215611ce457611ce3611955565b5b6000611cf285828601611ba2565b9250506020611d0385828601611cb8565b9150509250929050565b600080fd5b600080fd5b7f4e487b7100000000000000000000000000000000000000000000000000000000600052604160045260246000fd5b611d4f82611a60565b810181811067ffffffffffffffff82111715611d6e57611d6d611d17565b5b80604052505050565b6000611d8161194b565b9050611d8d8282611d46565b919050565b600067ffffffffffffffff821115611dad57611dac611d17565b5b611db682611a60565b9050602081019050919050565b82818337600083830152505050565b6000611de5611de084611d92565b611d77565b905082815260208101848484011115611e0157611e00611d12565b5b611e0c848285611dc3565b509392505050565b600082601f830112611e2957611e28611d0d565b5b8135611e39848260208601611dd2565b91505092915050565b60008060008060808587031215611e5c57611e5b611955565b5b6000611e6a87828801611ba2565b9450506020611e7b87828801611ba2565b9350506040611e8c87828801611aed565b925050606085013567ffffffffffffffff811115611ead57611eac61195a565b5b611eb987828801611e14565b91505092959194509250565b60008060408385031215611edc57611edb611955565b5b6000611eea85828601611ba2565b9250506020611efb85828601611ba2565b9150509250929050565b7f4e487b7100000000000000000000000000000000000000000000000000000000600052602260045260246000fd5b60006002820490506001821680611f4c57607f821691505b602082108103611f5f57611f5e611f05565b5b50919050565b7f4552433732313a20617070726f76616c20746f2063757272656e74206f776e6560008201527f7200000000000000000000000000000000000000000000000000000000000000602082015250565b6000611fc1602183611a25565b9150611fcc82611f65565b604082019050919050565b60006020820190508181036000830152611ff081611fb4565b9050919050565b7f4552433732313a20617070726f76652063616c6c6572206973206e6f7420746f60008201527f6b656e206f776e6572206e6f7220617070726f76656420666f7220616c6c0000602082015250565b6000612053603e83611a25565b915061205e82611ff7565b604082019050919050565b6000602082019050818103600083015261208281612046565b9050919050565b7f4552433732313a2063616c6c6572206973206e6f7420746f6b656e206f776e6560008201527f72206e6f7220617070726f766564000000000000000000000000000000000000602082015250565b60006120e5602e83611a25565b91506120f082612089565b604082019050919050565b60006020820190508181036000830152612114816120d8565b9050919050565b7f4552433732313a20696e76616c696420746f6b656e2049440000000000000000600082015250565b6000612151601883611a25565b915061215c8261211b565b602082019050919050565b6000602082019050818103600083015261218081612144565b9050919050565b7f4552433732313a2061646472657373207a65726f206973206e6f74206120766160008201527f6c6964206f776e65720000000000000000000000000000000000000000000000602082015250565b60006121e3602983611a25565b91506121ee82612187565b604082019050919050565b60006020820190508181036000830152612212816121d6565b9050919050565b600081905092915050565b600061222f82611a1a565b6122398185612219565b9350612249818560208601611a36565b80840191505092915050565b60006122618285612224565b915061226d8284612224565b91508190509392505050565b7f4f776e61626c653a206e6577206f776e657220697320746865207a65726f206160008201527f6464726573730000000000000000000000000000000000000000000000000000602082015250565b60006122d5602683611a25565b91506122e082612279565b604082019050919050565b60006020820190508181036000830152612304816122c8565b9050919050565b7f4552433732313a207472616e736665722066726f6d20696e636f72726563742060008201527f6f776e6572000000000000000000000000000000000000000000000000000000602082015250565b6000612367602583611a25565b91506123728261230b565b604082019050919050565b600060208201905081810360008301526123968161235a565b9050919050565b7f4552433732313a207472616e7366657220746f20746865207a65726f2061646460008201527f7265737300000000000000000000000000000000000000000000000000000000602082015250565b60006123f9602483611a25565b91506124048261239d565b604082019050919050565b60006020820190508181036000830152612428816123ec565b9050919050565b7f4e487b7100000000000000000000000000000000000000000000000000000000600052601160045260246000fd5b600061246982611acc565b915061247483611acc565b925082820390508181111561248c5761248b61242f565b5b92915050565b600061249d82611acc565b91506124a883611acc565b92508282019050808211156124c0576124bf61242f565b5b92915050565b7f4f776e61626c653a2063616c6c6572206973206e6f7420746865206f776e6572600082015250565b60006124fc602083611a25565b9150612507826124c6565b602082019050919050565b6000602082019050818103600083015261252b816124ef565b9050919050565b7f4552433732313a20617070726f766520746f2063616c6c657200000000000000600082015250565b6000612568601983611a25565b915061257382612532565b602082019050919050565b600060208201905081810360008301526125978161255b565b9050919050565b7f4552433732313a207472616e7366657220746f206e6f6e20455243373231526560008201527f63656976657220696d706c656d656e7465720000000000000000000000000000602082015250565b60006125fa603283611a25565b91506126058261259e565b604082019050919050565b60006020820190508181036000830152612629816125ed565b9050919050565b600061263b82611acc565b91507fffffffffffffffffffffffffffffffffffffffffffffffffffffffffffffffff820361266d5761266c61242f565b5b600182019050919050565b7f4e487b7100000000000000000000000000000000000000000000000000000000600052601260045260246000fd5b60006126b282611acc565b91506126bd83611acc565b9250826126cd576126cc612678565b5b828204905092915050565b60006126e382611acc565b91506126ee83611acc565b9250826126fe576126fd612678565b5b828206905092915050565b7f4e487b7100000000000000000000000000000000000000000000000000000000600052603260045260246000fd5b600081519050919050565b600082825260208201905092915050565b600061275f82612738565b6127698185612743565b9350612779818560208601611a36565b61278281611a60565b840191505092915050565b60006080820190506127a26000830187611b61565b6127af6020830186611b61565b6127bc6040830185611c77565b81810360608301526127ce8184612754565b905095945050505050565b6000815190506127e88161198b565b92915050565b60006020828403121561280457612803611955565b5b6000612812848285016127d9565b91505092915050565b7f4552433732313a206d696e7420746f20746865207a65726f2061646472657373600082015250565b6000612851602083611a25565b915061285c8261281b565b602082019050919050565b6000602082019050818103600083015261288081612844565b9050919050565b7f4552433732313a20746f6b656e20616c7265616479206d696e74656400000000600082015250565b60006128bd601c83611a25565b91506128c882612887565b602082019050919050565b600060208201905081810360008301526128ec816128b0565b905091905056fea264697066735822122011d3708729f1cb9fdbc2b888e8bb54ce29f3b13a7a8fb7c0865f21ef36f07f8a64736f6c63430008110033a264697066735822122050f5df28830e4274db19054c85b6282f531b11e3cedaa2a8781cb2daf7fd92df64736f6c63430008110033",
  "linkReferences": {},
  "deployedLinkReferences": {}
}